:02000000C9280D
:1000060083169C1C08280000032829089B002A0840
:100016009A009C131C150B08D0008B1355309D00BD
:10002600AA309D009C14D01B1A288B131B288B17F3
:040036001C11080091
:10003A008312051285122008D000D00D5010D00D61
:10004A005010D00D5010D00D501050088504A90141
:08005A002008AA0003200800A1
:0C006200831225088A0024088200080090
:10006E008312280883169B009C131C141A08D000B8
:02007E00080078
:100080008312851083168510043083128506413053
:10009000DC00EE30DD00DD0B4B28DC0B4B280000D4
:1000A000043085060230DB000430DC00BA30DD00AD
:1000B000DD0B5828DC0B5828DB0B58280000831672
:1000C00085140230DB004530DC00A930DD00DD0B9B
:1000D0006728DC0B6728DB0B67280000000008009E
:1000E0008316810195140730831299000B30831613
:1000F00085008312851485150511A8013720500845
:10010000A0000330D0055008A0005008A8001D2012
:100110004020A7010A3027020318A52883120515DD
:100120004130DC00EE30DD00DD0B9428DC0B942840
:10013000000005114130DC00EE30DD00DD0B9E28B3
:10014000DC0B9E280000A70A8A280330DB008A30D7
:10015000DC005530DD00DD0BAB28DC0BAB28DB0B06
:08016000AB28000000000800BC
:100168008312051ABB28851ABB280515BC2805115A
:0201780008007D
:10017A0031208A110A128000840AA40A0319A50AE6
:08018A00D003031DBD2808008D
:100192008312A001A101A201A3017020B4202308AF
:1001A200003A031D0E298519D828A10AD928A101D0
:1001B2008230DC00DD30DD00DD0BDD28DC0BDD28EC
:1001C2000000000021080F3C031CEA28851CEA28D5
:1001D2000D290230A300A101A6018518F2280314FB
:1001E200F3280310003003180130A2000430850602
:1001F2004130DC00EE30DD00DD0BFD28DC0BFD289C
:100202000000043085064130DC00EE30DD00DD0BFD
:100212000829DC0B082900005D292308023A031D86
:100222005D292608031D2429851D2429851C2429CE
:100232000130A6001A30DC00F830DD00DD0B1F298A
:10024200DC0B1F290000260803194029851D2C29D3
:10025200851C2C294029A201A601A00A03302005F1
:10026200D0005008A0005008A8001D201A30DC0061
:10027200F830DD00DD0B3B29DC0B3B29000083124B
:10028200851D5029851C5029A10A4130DC00EE3021
:10029200DD00DD0B4A29DC0B4A2900005129A101AE
:1002A20021081E3C03185D29A3010130A600220883
:0C02B200031D5C294020A101CF285E291B
:02400E009431EB
:00000001FF
