:02000000F628E0
:1000060083128510831685100430831285064130CD
:10001600DC00EE30DD00DD0B0E28DC0B0E280000C8
:10002600043085060230DB000430DC00BA30DD0027
:10003600DD0B1B28DC0B1B28DB0B1B2800008316A3
:1000460085140230DB004530DC00A930DD00DD0B15
:100056002A28DC0B2A28DB0B2A28000000000800CF
:1000660083169C1C3828000033282A089B002B087E
:100076009A009C131C150B08D0008B1355309D005D
:10008600AA309D009C14D01B4A288B134B288B1733
:040096001C11080031
:0C009A00831222088A002108820008005E
:1000A60083128512851A592805125A2805162A0818
:1000B600D000D00D5010D00D5010D00D5010D00DD6
:1000C6005010500885041A30DC00F830DD00DD0BD6
:0A00D6006A28DC0B6A28000008000D
:1000E00083122A0883169B009C131C141A08D00044
:0200F000080006
:1000F20083122908270603198428AA012908AB00BC
:0801020033202908A7000800C2
:10010A008316810195140730831299000B308316E8
:10011A0085008312851485150511AA017020033004
:10012A00D0055008A7005008A4005008AA00532080
:10013A000230AA00702001305005A5000320A90151
:10014A000A3029020318C028831205114130DC0045
:10015A00EE30DD00DD0BAF28DC0BAF280000051503
:10016A004130DC00EE30DD00DD0BB928DC0BB928AC
:10017A000000A90AA5280230DB004530DC00A930BE
:10018A00DD00DD0BC628DC0BC628DB0BC628000009
:04019A000000080059
:10019E000030831224060319DA2825080319DA28F9
:1001AE000130D100DB28D101A81CDF28D201E128C3
:1001BE000130D20052085106D0005018E82805111F
:0601CE00E92805150800F8
:1001D4004D208A110A128000840AA10A0319A20A76
:0801E400D003031DEA28080006
:1001EC008312A0018520831285191429013025065C
:1001FC00D0005008A5000230AA005008AB003320F4
:10020C008312851914298230DC00DD30DD00DD0B12
:10021C000D29DC0B0D29000000000629CF208629B2
:10022C0085191A29A80A1B29A80128080F3C031CA8
:10023C002229851C222945290130A000A801A601EC
:10024C0085182A2903142B290310003003180130B8
:10025C00A300043085064130DC00EE30DD00DD0B00
:10026C003529DC0B35290000043085064130DC00D3
:10027C00EE30DD00DD0B4029DC0B402900008F291E
:10028C002608031D5029851D5029851C5029013035
:10029C00A6007B29260803196429851D5829851C6D
:1002AC0058296429A301A601A40A03302405D0000F
:1002BC005008A4005008AA0053207B29851D7A29D8
:1002CC00851C7A29A80A28081E3C031879290130B4
:1002DC00A6002308031D732903202408A9007920F4
:1002EC008312A801A0017B29A8018F2983128512F2
:1002FC00851A8229051283290516043085068F2953
:10030C002008003A031916292008013A0319462936
:10031C007C294130DC00EE30DD00DD0B9329DC0B59
:08032C0093290000142999290E
:02400E009431EB
:00000001FF
