:02000000F528E1
:1000060083169C1C0828000003282B089B002C083C
:100016009A009C131C150B08D0008B1355309D00BD
:10002600AA309D009C14D01B1A288B131B288B17F3
:040036001C11080091
:10003A0083128512851A23280512242805162A08F0
:10004A00D000D00D5010D00D5010D00D5010D00D42
:10005A005010500885042A08250603193A28AB01CE
:10006A002A08AC0003202A08A5001A30DC00F83060
:0E007A00DD00DD0B3E28DC0B3E2800000800F8
:0C008800831222088A0021088200080070
:1000940083122A0883169B009C131C141A08D00090
:0200A400080052
:1000A600831285108316851004308312850641302D
:1000B600DC00EE30DD00DD0B5E28DC0B5E28000088
:1000C600043085060230DB000430DC00BA30DD0087
:1000D600DD0B6B28DC0B6B28DB0B6B280000831613
:1000E60085140230DB004530DC00A930DD00DD0B75
:1000F6007A28DC0B7A28DB0B7A280000000008003F
:100106008316810195140730831299000B308316EC
:1001160085008312851485150511AA014A2003302E
:10012600D0055008A5005008A4005008AA001D20BC
:1001360002308312AA004A2001305005A80053203D
:10014600A9010A3029020318BF288312051141307C
:10015600DC00EE30DD00DD0BAE28DC0BAE28000047
:1001660005154130DC00EE30DD00DD0BB828DC0B78
:10017600B8280000A90AA4280230DB004530DC00BC
:10018600A930DD00DD0BC528DC0BC528DB0BC52837
:060196000000000008005B
:10019C000030831224060319D92828080319D928FA
:1001AC000130D100DA28D101A61CDE28D201E028CA
:1001BC000130D20052085106D0005018E728051122
:0601CC00E82805150800FB
:1001D20044208A110A128000840AA10A0319A20A81
:0801E200D003031DE928080009
:1001EA008312A0018320831285191329013028065E
:1001FA00D0005008A8000230AB005008AC00032021
:10020A008312851913298230DC00DD30DD00DD0B15
:10021A000C29DC0B0C29000000000529CE207C29C2
:10022A0085191929A60A1A29A60126080F3C031CB2
:10023A002129851C212944290130A000A601A701F2
:10024A008518292903142A290310003003180130BC
:10025A00A300043085064130DC00EE30DD00DD0B02
:10026A003429DC0B34290000043085064130DC00D7
:10027A00EE30DD00DD0B3F29DC0B3F29000085292C
:10028A002708031D4F29851D4F29851C4F29013039
:10029A00A7007729270803196329851D5729851C73
:1002AA0057296329A301A701A40A03302405D00012
:1002BA005008A4005008AA001D2077298312851D22
:1002CA007629851C7629A60A26081E3C0318752954
:1002DA000130A7002308031D73295320A601A0019A
:1002EA007729A601852904308312850685292008E5
:1002FA00003A031915292008013A031945297829D2
:10030A004130DC00EE30DD00DD0B8929DC0B892968
:06031A00000013298F29E9
:02400E009431EB
:00000001FF
