:02000000DA28FC
:1000060083169C1C08280000032829089B002A0840
:100016009A009C131C150B08D0008B1355309D00BD
:10002600AA309D009C14D01B1A288B131B288B17F3
:040036001C11080091
:10003A0083128512851A23280512242805162808F2
:10004A00D000D00D5010D00D5010D00D5010D00D42
:10005A00501050088504A9012808AA0003201A3064
:10006A00DC00F830DD00DD0B3828DC0B3828000016
:02007A0008007C
:0C007C00831222088A002108820008007C
:100088008312280883169B009C131C141A08D0009E
:0200980008005E
:10009A008312851083168510043083128506413039
:1000AA00DC00EE30DD00DD0B5828DC0B58280000A0
:1000BA00043085060230DB000430DC00BA30DD0093
:1000CA00DD0B6528DC0B6528DB0B65280000831631
:1000DA0085140230DB004530DC00A930DD00DD0B81
:1000EA007428DC0B7428DB0B74280000000008005D
:1000FA008316810195140730831299000B308316F9
:10010A0085008312851485150511A801442050081D
:10011A00A3000330D0055008A3005008A8001D20F2
:10012A004D20A7010A3027020318B22883120511AD
:10013A004130DC00EE30DD00DD0BA128DC0BA1280C
:10014A00000005154130DC00EE30DD00DD0BAB2888
:10015A00DC0BAB280000A70A97280230DB004530E9
:10016A00DC00A930DD00DD0BB828DC0BB828DB0B7E
:08017A00B82800000000080095
:100182008312A41CC628D101C8280130D1005118FD
:0A019200CC280511CD280515080042
:10019C003E208A110A128000840AA10A0319A20ABD
:0801AC00D003031DCE2808005A
:1001B4008312A0017D20C12046298519E328A40AC1
:1001C400E428A40124080F3C031CEB28851CEB281D
:1001D4000E290130A000A401A5018518F3280314F9
:1001E400F4280310003003180130A60004308506FB
:1001F4004130DC00EE30DD00DD0BFE28DC0BFE2898
:100204000000043085064130DC00EE30DD00DD0BFB
:100214000929DC0B092900004F292508031D192988
:10022400851D1929851C19290130A5004129250896
:1002340003192D29851D2129851C21292D29A60174
:10024400A501A30A03302305D0005008A3005008D9
:10025400A8001D2041298312851D4029851C4029A1
:10026400A40A24081E3C03183F290130A5002608CF
:10027400031D3D294D20A401A0014129A4014F29BA
:100284000430831285064F292008003A0319DF2819
:100294002008013A03190F2942294130DC00EE30CD
:1002A400DD00DD0B5329DC0B53290000DD2859291F
:02400E009431EB
:00000001FF
