:02000000CA280C
:1000060083169C1C08280000032829089B002A0840
:100016009A009C131C150B08D0008B1355309D00BD
:10002600AA309D009C14D01B1A288B131B288B17F3
:040036001C11080091
:10003A008312051285122008D000D00D5010D00D61
:10004A005010D00D5010D00D501050088504A90141
:08005A002008AA0003200800A1
:0C006200831225088A0024088200080090
:10006E008312280883169B009C131C141A08D000B8
:02007E00080078
:100080008312851083168510043083128506413053
:10009000DC00EE30DD00DD0B4B28DC0B4B280000D4
:1000A000043085060230DB000430DC00BA30DD00AD
:1000B000DD0B5828DC0B5828DB0B58280000831672
:1000C00085141030DB003930DC000D30DD00DD0B35
:1000D0006728DC0B6728DB0B67280000000008009E
:1000E0008316810195140730831299000B30831613
:1000F00085008312851485150511A8013720500845
:10010000A0005008033C03188628A0012008A8007E
:100110001D204020A7010A3027020318A6288312B9
:1001200005154130DC00EE30DD00DD0B9528DC0BE1
:100130009528000005114130DC00EE30DD00DD0BBC
:100140009F28DC0B9F280000A70A8B280B30DB00C0
:100150002630DC005D30DD00DD0BAC28DC0BAC288C
:0A016000DB0BAC28000000000800D3
:10016A008312051ABC28851ABC280515BD28051155
:02017A0008007B
:10017C0031208A110A128000840AA40A0319A50AE4
:08018C00D003031DBE2808008A
:100194008312A001A101A201A3017020B5202308AC
:1001A400003A031D10298519D928A10ADA28A101CA
:1001B4008230DC00DD30DD00DD0BDE28DC0BDE28E8
:1001C4000000000021080F3C031CEB28851CEB28D1
:1001D4000F290230A300A101A001A6018518F4286B
:1001E4000314F5280310003003180130A200043072
:1001F40085064130DC00EE30DD00DD0BFF28DC0B32
:10020400FF280000043085064130DC00EE30DD00BC
:10021400DD0B0A29DC0B0A2900005F292308023AB6
:10022400031D5F292608031D2629851D2629851CF3
:1002340026290130A6001A30DC00F830DD00DD0B81
:100244002129DC0B21290000260803194229851DD8
:100254002E29851C2E294229A201A601A00A0330B9
:100264002005D0005008A0005008A8001D201A3016
:10027400DC00F830DD00DD0B3D29DC0B3D290000FE
:100284008312851D5229851C5229A10A4130DC00A4
:10029400EE30DD00DD0B4C29DC0B4C29000053292A
:1002A400A10121081E3C03185F29A3010130A60007
:0E02B4002208031D5E294020A101D0286029E8
:02400E00F2318D
:00000001FF
