:020000040000FA
:02000000F72BDC
:10042C008312A2002208A00004300310A00DFF3E8E
:10043C00031D1B2A05080F39200485001A30A10062
:10044C00F830A000A00B282AA10B282A00000800D5
:10045C008312A1012F080319382A2C080319382AF2
:10046C00A101A10AA9183C2A01303D2A003021061D
:10047C00A000A00DA00D05082006FB392006850064
:10048C0008008312A10021082E0603190800831608
:10049C009C184D2A9B018312210883169A003F3029
:1004AC008312A000200883169C05831203108B1B5B
:1004BC0003148B1383161C1555309D00AA309D0018
:1004CC009C141C11831203188B172108A000200800
:1004DC00AE00080083128510831685108312050C5C
:1004EC00A000200C0139A0000130A006A00DA00D29
:1004FC0005082006FB39200685004130A100EE30AE
:10050C00A000A00B872AA10B872A00008312050CE0
:10051C00A000200C0139A0000130A006A00DA00DF8
:10052C0005082006FB39200685000230A2000430A5
:10053C00A100BA30A000A00BA12AA10BA12AA20BEA
:10054C00A12A00008316851402308312A2004530C4
:10055C00A100A930A000A00BB12AA10BB12AA20BBB
:10056C00B12AB82A0800831681019514073083122A
:10057C0099000B308316850083128514851505119F
:10058C0083169B013F308312A300230883169C051E
:10059C001C141A0803398312AE00A3002308AF0001
:1005AC002F081622023083169B003F308312A300C3
:1005BC00230883169C051C141A0801398312A30006
:1005CC002308AC0070228312A6010A3026020318FD
:1005DC000D2B05114130A400EE30A300A30BF42A1F
:1005EC00A40BF42A0000831205154130A400EE3050
:1005FC00A300A30BFF2AA40BFF2A000001308312D7
:10060C00A3002308A6070A302602031CEF2A023097
:10061C00A5004530A400A930A300A30B132BA40BF9
:10062C00132BA50B132B1A2B0800B9228312851937
:10063C004F2B0130A7002708AC0683169C18232BE0
:10064C0002309B0083122C0883169A003F308312D1
:10065C00A700270883169C05831203108B1B031419
:10066C008B1383161C1555309D00AA309D009C14CD
:10067C001C11831203188B17831285194F2B823090
:10068C00A800DD30A700A70B492BA80B492B4E2B3C
:10069C00422B2E22E32B8519582B0130A70027085B
:1006AC00A907592BA9011030290203185F2B8518B3
:1006BC00EC2BAD01AD0AA901AB010310851C031491
:1006CC00003003180130AA00050CA700270C0139D3
:1006DC00A7000130A706A70DA70D05082706FB39B3
:1006EC00270685004130A800EE30A700A70B7C2B15
:1006FC00A80B7C2B00008312050CA700270C0139DA
:10070C00A7000130A706A70DA70D05082706FB3982
:10071C00270685004130A800EE30A700A70B942BCC
:10072C00A80B942B0000EC2B83122B080319851DAE
:10073C00A42B851CA42BAB01AB0AEC2B2B080319A7
:10074C00B82B851DAB2B8518B82BAA01AB0101303A
:10075C00A7002708AF070330A7002708AF052F080D
:10076C001622EC2B8519851CD02B0130A7002708ED
:10077C00A9071F302902031CEC2BAB01AB0A2A087A
:10078C00031DC92B702283122F0847228312A90143
:10079C00AD01EC2BA901EC2B85120512050CA70061
:1007AC00270C0139A7000130A706A70DA70D0508D6
:1007BC002706FB3927068500EC2B83122D08003AFF
:1007CC000319512B013A03199A2BD22B4130831266
:1007DC00A800EE30A700A70BF12BA80BF12B000003
:1007EC004F2B8312A901AA01AB01AC01AD0183010E
:0207FC001B2BB5
:02400E009431EB
:084000000C0001000D0000009E
:00000001FF
